:100000000C9409010C9431010C9431010C943101D0
:100010000C9431010C9431010C9431010C94310198
:100020000C9431010C9431010C9431010C94310188
:100030000C9431010C9431010C9431010C94310178
:100040000C94DD0C0C9431010C94B00E0C94F30E56
:100050000C9431010C9431010C9431010C94310158
:100060000C948E020C9431016932635F6164647296
:100070006573733D004572726F7220007365745F23
:1000800070726F6772616D6D696E675F6D6F6465C9
:1000900028007365745F6932635F616464726573BD
:1000A000732800636F6E666967282900726573653F
:1000B000745F636F6E66696728290070726F67727C
:1000C000616D6D696E675F6D6F64653D0070726F25
:1000D0006772616D6D696E675F6D6F64653D006924
:1000E00032635F616464726573733D00636F6E6653
:1000F00069675F76657273696F6E3D004669726D00
:10010000776172652076007365745F706F776572D2
:1001100028007374617465282900706F77657228F0
:10012000290072657665727365282900666F72779B
:100130006172642829006F6E2829006F666628297D
:1001400000687474703A2F2F6D6963726F666C75F6
:1001500069646963732E75746F726F6E746F2E634A
:10016000612F64726F70626F7400302E312E300018
:10017000312E3000456C656374726F6D61676E651A
:100180007420636F6E74726F6C6C65720057686573
:10019000656C6572204D6963726F666C7569646920
:1001A0006373204C616200302E310044726F7042E4
:1001B0006F742070726F746F636F6C0000000007C3
:1001C000000201000003040600000000000000001F
:1001D00001020408102040800102040810200102DE
:1001E00004081020040404040404040402020202AB
:1001F000020203030303030300000000250028009C
:100200002B0000000000240027002A003502C50B47
:10021000AF0F11241FBECFEFD8E0DEBFCDBF11E07E
:10022000A0E0B1E0E0EBFBE202C005900D92AA373E
:10023000B107D9F713E0AAE7B1E001C01D92A33DD1
:10024000B107E1F712E0C2E1D2E004C02297FE015B
:100250000E94DD12CC30D107C9F70E943B010C94FB
:10026000D6150C9400008EE093E00C94ED0A8EE01D
:1002700093E00C94BA090E947C0D0E943301CAEEEF
:10028000DEE00E9437012097E1F30E94EA0EF9CFE9
:100290008091AD0190E02091AE01821B91090895FB
:1002A0002091AE018091AD01281750F4E22FF0E0CB
:1002B000E155FE4F808190E02F5F2093AE010895BD
:1002C0008FEF9FEF0895E091AE018091AD01E817A7
:1002D00030F4F0E0E155FE4F808190E008958FEF1B
:1002E0009FEF08950895E0918601F091870130977E
:1002F000E1F03091AE012091AD013217B0F040E055
:10030000242F30E02617370754F4DC01A20FB31F67
:100310005C91D901A155BE4F5C934F5FF1CF109214
:10032000AE016093AD01CB0109940895E09188017D
:10033000F0918901309729F010928C0110928B0175
:1003400009940895CF92DF92EF92FF920F931F933B
:10035000CF93DF937C01CB018A0120918A01222374
:1003600089F0EB016B01C40ED51ECC15DD0569F0DB
:100370006991D701ED91FC910190F081E02DC701C9
:100380000995F3CF642F0E945B02C801DF91CF91E2
:100390001F910F91FF90EF90DF90CF900895CF9332
:1003A000DF931F92CDB7DEB7698320918A012223A4
:1003B000D1F020918B01203240F021E030E0FC01AF
:1003C0003383228380E090E015C080918C01E82F78
:1003D000F0E0E357FE4F998190838F5F80938C010B
:1003E00080938B0105C061E0CE0101960E945B0203
:1003F00081E090E00F90DF91CF910895FC0113828E
:10040000128248EE53E060E070E0448355836683D7
:1004100077838BE091E09183808308951092AE0101
:100420001092AD0110928C0110928B010C94390244
:10043000CF93DF93EC01862F0E94570286E991E06B
:100440000E94790283E791E00E947402CE01DF915D
:10045000CF910C940E0270938701609386010895EA
:10046000709389016093880108958AE791E00C9464
:10047000FE0110923C0281E080933A021092390210
:1004800061E082E10E942B0C61E083E10E942B0C71
:10049000E9EBF0E080818E7F808380818D7F808397
:1004A00088E48093B80085E48093BC000895880FA9
:1004B0008093BA000895613298F420913C02243070
:1004C00089F46093F101FC0183EF91E0DC012A2FB4
:1004D000281B261718F421912D93F9CF80E0089559
:1004E00081E0089582E0089590933602809335026A
:1004F00008959093380280933702089585ED809394
:10050000BC008091BC0084FDFCCF10923C02089599
:1005100085EC8093BC0010923C0208951F920F92CC
:100520000FB60F9211242F933F934F935F936F93C6
:100530007F938F939F93AF93BF93EF93FF9380919C
:10054000B900887F803609F49CC068F5883209F4C8
:100550005BC090F4803109F454C038F4882309F466
:10056000F5C0883009F44DC0F5C0883109F44CC09D
:10057000803209F45DC0EEC0803409F468C048F4EC
:10058000803309F455C0883309F0E4C08093CF016B
:10059000A8C0803509F44FC0883509F45DC088349F
:1005A00009F0D8C0D5C0883909F4C6C0A8F4883786
:1005B00009F467C038F4883609F463C0803709F459
:1005C00060C0C8C0883809F4B7C0803909F45FC07A
:1005D000803809F0BFC05BC0803B09F485C038F4A7
:1005E000803A09F466C0883A09F47EC0B3C0803C02
:1005F00009F4A6C0883C09F4A3C0883B09F489C06B
:10060000A9C080913B0210C0909114028091130206
:10061000981770F5E091140281E08E0F8093140218
:10062000F0E0EB5EFD4F80818093BB0085EC85C0E0
:100630008093CF018DC0E091140281E08E0F8093F2
:1006400014028091BB00F0E0EB5EFD4F808390913F
:100650001402809113026DC0E091140281E08E0FAC
:10066000809314028091BB00F0E0EB5EFD4F80832D
:1006700080913A0281116CC081E08093390284EA52
:1006800060C083E080933C021092D001CFCF809174
:10069000D001803208F050C0E091D00181E08E0F8F
:1006A0008093D0018091BB00F0E0EF52FE4F808339
:1006B000BDCF8091D001803230F4E091D001F0E0E4
:1006C000EF52FE4F10820E947E026091D00170E0D6
:1006D000E0913502F091360281ED91E0099510929A
:1006E000D0010E94880236C084E080933C021092C0
:1006F000F2011092F101E0913702F0913802099570
:100700008091F101811105C081E08093F101109287
:10071000F301E091F20181E08E0F8093F201F0E0AD
:10072000ED50FE4F80818093BB009091F20180914B
:10073000F101981708F47ACF85E88093BC000AC0CD
:1007400085EC8093BC0010923C0204C01092CF0153
:100750000E947E02FF91EF91BF91AF919F918F9187
:100760007F916F915F914F913F912F910F900FBEAD
:100770000F901F901895CF93209108033091090393
:10078000FB0180E090E0B9016F557D4F841795071C
:1007900039F0C191DB01A80FB91FCC930196F6CFB8
:1007A000820F931F9093090380930803CF910895BC
:1007B000FC01818581110CC061E083E10E94F20B94
:1007C00060E083E10E942B0C60E083E10C94F20B6B
:1007D00060E087E00E942B0C61E087E00C942B0C1A
:1007E000CF93DF93EB0167E171E081EA92E00E9431
:1007F0001B15BE01892B41F081EA92E00E940B1586
:1008000021E0892B41F126C081EA92E00E941B156C
:10081000009701F122E0813A9207E1F4FC01019096
:100820000020E9F7329780818932A1F41082FE011D
:1008300001900020E9F73197EC1BFD0B80910A0332
:1008400090910B038E0F9F1F90930B0380930A03CD
:1008500021E001C020E0822FDF91CF910895CF9356
:10086000DF93CDB7DEB72E970FB6F894DEBF0FBE7D
:10087000CDBF4AE0CE0108960E94F41165E770E012
:100880008DE392E00E94F0146DE372E0CE010196D8
:100890000E94A411BE01685F7F4FCE0101960E94A5
:1008A0007B12BC0185E293E00E949510CE01019677
:1008B0000E943611CE0108960E9436112E960FB670
:1008C000F894DEBF0FBECDBFDF91CF910895CF92D8
:1008D000DF92EF92FF920F931F93CF93DF937C01F0
:1008E000EB018A01C0900A03D0900B03C6018F551B
:1008F0009D4F998388836CE270E00E940015F80197
:1009000091838083A881B981009771F4FD010190E2
:100910000020E9F73197EA1BFB0B2E2FAE0FB11D1C
:10092000F801B183A08304C09C012A1B3B0B2F5FFD
:10093000222341F0C20ED11CD0920B03C0920A03B5
:1009400081E005C068E0C7010E942F0480E0DF91CC
:10095000CF911F910F91FF90EF90DF90CF9008956E
:10096000AF92BF92CF92DF92EF92FF920F931F93BD
:10097000CF93DF9300D000D0CDB7DEB76B01EDB6DB
:10098000FEB6AE014F5F5F4FBE016D5F7F4F0E94AD
:100990006704882379F16B817C8109811A81061BA8
:1009A000170BC80101962DB73EB7281B390B0FB6A0
:1009B000F8943EBF0FBE2DBF8DB79EB701965C0168
:1009C000A8010E94F714F501E00FF11F1082C50184
:1009D0000E94D214AA2797FDA095BA2FF601808312
:1009E0009183A283B3830FB6F894FEBE0FBEEDBE13
:1009F00081E001C080E00FB6F894FEBE0FBEEDBEF0
:100A00000F900F900F900F90DF91CF911F910F914A
:100A1000FF90EF90DF90CF90BF90AF900895EF924E
:100A2000FF920F931F93CF93DF93CDB7DEB7A297BB
:100A30000FB6F894DEBF0FBECDBF7C010D8F1E8FA9
:100A40002F8F38A349A35AA369A17AA14AE0CE0106
:100A500001960E9422126F8D78A14AE0CE0108967D
:100A60000E9422126D8D7E8D4AE0CE0146960E9434
:100A70002212BE016A5E7F4FCE010F960E94D211F4
:100A80006AE171E0CE010F960E948E12BE01685F8E
:100A90007F4F0E947B126AE171E00E948E12BE01BC
:100AA0006F5F7F4F0E947B12BC01C7010E94D21171
:100AB000CE010F960E943611CE0146960E94361145
:100AC000CE0108960E943611CE0101960E94361181
:100AD000C701A2960FB6F894DEBF0FBECDBFDF915F
:100AE000CF911F910F91FF90EF900895CF93DF93D7
:100AF000CDB7DEB72C970FB6F894DEBF0FBECDBFD3
:100B000046E050E060E070E0CE0107960E94531589
:100B100086E0FE013796DE01119601900D928A95CE
:100B2000E1F729813A814B815C816D817E8180E092
:100B300090E02C960FB6F894DEBF0FBECDBFDF91CC
:100B4000CF910895EF92FF920F931F93CF93DF936E
:100B5000CDB7DEB765970FB6F894DEBF0FBECDBF39
:100B60007C0160E771E081EA92E00E94F01461EAA2
:100B700072E0CE0101960E94A41164E771E081EA5F
:100B800092E00E94F01461EA72E0CE010F960E949A
:100B9000A411BE01615F7F4FCE0108960E94D21161
:100BA0006CE171E0CE0108960E948E12BE016F5F6B
:100BB0007F4F0E947B12BC0185E293E00E9495105A
:100BC000CE0108960E943611CE010F960E94361172
:100BD000CE0101960E9436116AE671E081EA92E048
:100BE0000E94F01461EA72E0CE0108960E94A411FE
:100BF0006CEF70E08DE392E00E94F0146DE372E020
:100C0000CE0101960E94A411BE01685F7F4FCE0104
:100C100001960E947B12BC0185E293E00E94951030
:100C2000CE0101960E943611CE0108960E9436111F
:100C300061E471E081EA92E00E94F01461EA72E0FE
:100C400085E293E00E94A710C7010E9476052F87D6
:100C5000388B498B5A8B6B8B7C8B89019A01AB014A
:100C6000B701CE0108960E940F056CEE70E08DE38F
:100C700092E00E94F0146DE372E0CE0101960E94B2
:100C8000A411BE01685F7F4FCE0101960E947B12C6
:100C9000BC0185E293E00E949510CE0101960E946E
:100CA0003611CE0108960E9436114AE0F7016085A0
:100CB000CE0108960E94F4116FED70E08DE392E092
:100CC0000E94F0146DE372E0CE0101960E94A4111F
:100CD000BE01685F7F4FCE0101960E947B12BC016E
:100CE00085E293E00E949510CE0101960E94361194
:100CF000CE0108960E9436114AE0F7016185CE01C7
:100D000008960E94F4116DEC70E08DE392E00E9471
:100D1000F0146DE372E0CE0101960E94A411BE01B1
:100D2000685F7F4FCE0101960E947B12BC0185E275
:100D300093E00E949510CE0101960E943611CE01DB
:100D400008960E94361165960FB6F894DEBF0FBE66
:100D5000CDBFDF91CF911F910F91FF90EF9008953C
:100D600048E050E060E070E002960C9463150F9349
:100D70001F93CF93DF93CDB7DEB72E970FB6F894BE
:100D8000DEBF0FBECDBF8C01FC0161874AE0CE0102
:100D900008960E94F4116BEB70E08DE392E00E94E4
:100DA000F0146DE372E0CE0101960E94A411BE0121
:100DB000685F7F4FCE0101960E947B12BC0185E2E5
:100DC00093E00E949510CE0101960E943611CE014B
:100DD00008960E943611C8010E94B0062E960FB6E2
:100DE000F894DEBF0FBECDBFDF91CF911F910F9161
:100DF00008950F931F93CF93DF93EC0180910C0321
:100E0000833809F46BC038F48138A1F108F04CC084
:100E1000803861F0ECC0853809F47AC008F493C0DA
:100E2000863809F4ABC08F39D9F0E1C08091060350
:100E300090910703892BD9F46BEA71E081EA92E083
:100E40000E94F014E1EAF2E0DF010D900020E9F7E2
:100E50008D0101501109015A12406BEA71E0A8C0DE
:100E60008091060390910703019709F4ABC086E0D7
:100E70008A87BDC08091060390910703892BB9F73B
:100E800067EA71E081EA92E00E94F014E1EAF2E0A0
:100E9000DF010D900020E9F78D0101501109015A81
:100EA000124067EA71E084C08091060390910703C5
:100EB000892BE9F664E771E081EA92E00E94F01480
:100EC000E1EAF2E0DF010D900020E9F78D01015029
:100ED0001109015A124064E771E06AC0809106036B
:100EE00090910703892B19F66DE871E081EA92E091
:100EF0000E94F014E1EAF2E0DF010D900020E9F732
:100F00008D0101501109015A12406DE871E050C085
:100F10008091060390910703892B09F0A8CF6AE618
:100F200071E081EA92E00E94F014E1EAF2E0DF0170
:100F30000D900020E9F78D0101501109015A12406E
:100F40006AE671E035C08091060390910703892B12
:100F500009F08DCF60E771E081EA92E00E94F01421
:100F6000E1EAF2E0DF010D900020E9F78D01015088
:100F70001109015A124060E771E01AC0809106031E
:100F800090910703892B09F072CF61E471E081EA47
:100F900092E00E94F014E1EAF2E0DF010D900020FF
:100FA000E9F78D0101501109015A124061E471E025
:100FB000CF010E94F014A80161EA72E0CE010E9404
:100FC000BB0314C080910A0390910B03FC01EF5501
:100FD000FD4F2081019690930B0380930A0361E0FB
:100FE000211101C060E0CE010E94B7061A86DF9190
:100FF000CF911F910F9108951F93CF93DF93EC0131
:10100000162F48E050E060E070E002960E94531511
:101010008A819B81892B51F48C819D81892B31F4AC
:101020008E819F81892B11F4112361F01B821A821A
:101030001D821C821F821E828AE088871986CE014B
:101040000E94B006CE010E94D80368858AE791E02D
:10105000DF91CF911F910C941802CF93DF93EC0195
:1010600061E087E00E942B0C61E087E00E94F20BB8
:1010700040E052EC61E070E085E293E00E942E0FC8
:1010800060E0CE010E94FC07CE010E94A2056EE343
:1010900079E08AE791E00E94300263E179E08AE733
:1010A00091E0DF91CF910C942B020F931F93CF937C
:1010B000DF93CDB7DEB72E970FB6F894DEBF0FBE25
:1010C000CDBF8C01FC0160878AE791E00E94180285
:1010D0004AE0F8016085CE0108960E94F41168E6A6
:1010E00070E08DE392E00E94F0146DE372E0CE01B7
:1010F00001960E94A411BE01685F7F4FCE01019648
:101100000E947B12BC0185E293E00E949510CE0103
:1011100001960E943611CE0108960E943611C80130
:101120000E94B0062E960FB6F894DEBF0FBECDBF5C
:10113000DF91CF911F910F9108950F931F93CF933C
:10114000DF9300D000D0CDB7DEB78C016CEA70E041
:101150008DE392E00E94F0146DE372E0C8010E94FA
:10116000F003882329F061E0C8010E94FC070DC04C
:1011700063EA70E08DE392E00E94F0146DE372E0A8
:10118000C8010E94F003882321F0C8010E94A20533
:101190003EC062E970E08DE392E00E94F0146DE3DE
:1011A00072E0C8010E94F003882369F0BE016F5FFE
:1011B0007F4FC8010E94B004882349F16981C801AA
:1011C0000E94550824C06CE770E08DE392E00E9415
:1011D000F0146DE372E0C8010E94F0038823C9F0A7
:1011E000BE016F5F7F4FC8010E94B004882379F071
:1011F00081E049815A816B817C811416150616069F
:1012000017060CF080E0682FC8010E94B70681E045
:1012100001C080E00F900F900F900F90DF91CF9161
:101220001F910F9108950F931F93CF93DF93EC01BC
:101230008AE791E00E94500180930C032197D0939C
:101240000703C0930603C536D10540F081E08093C3
:101250000503DF91CF911F910F91089501EA12E0EC
:10126000C801815A92408C179D0784F78AE791E064
:101270000E945001F80181938F01F2CF80910D03FC
:10128000882359F042E050E068E073E08AE791E09B
:101290000E94A20110920D030895409108035091FD
:1012A000090361EA72E08AE791E00C94A20185E209
:1012B00093E00E94180E892BA1F024E630E041EA69
:1012C00052E06AE085E293E00E94E50D99278F5590
:1012D0009D4FFC01108210920B0310920A0381E0D3
:1012E000089580E00895CF93DF93EC010E945709A1
:1012F000882369F0E881F9810680F781E02DCE012D
:101300000995811104C062E0CE010E942F048091F2
:101310000503882361F110920903109208031092CB
:101320000B0310920A0381E080930D038A87E88102
:10133000F9810480F581E02DCE01099541E050E06E
:10134000BE01665F7F4FCE010E94BB031092050372
:1013500080910C038F3959F468EE73E080E090E0DF
:101360000E94560DCE01DF91CF910C94D803DF91EE
:10137000CF9108950C947309FC01138682E691E0E5
:10138000918380838FEF848715860895CF93DF93B1
:10139000EC016C8770E085E00E947E0C6FE171E0EB
:1013A00085E293E00E9478104AE050E06C8585E287
:1013B00093E0DF91CF910C941F111F93CF93DF9394
:1013C000EC01162F61110BC060E088E00E942B0C2D
:1013D00060E086E00E942B0C66E271E026C061307E
:1013E00059F461E088E00E942B0C61E086E00E94E5
:1013F0002B0C60E371E019C0623059F461E088E0C1
:101400000E942B0C60E086E00E942B0C69E371E0E7
:101410000CC0633089F460E088E00E942B0C61E02E
:1014200086E00E942B0C67E471E085E293E00E9465
:10143000A7101D8780E001C088E0DF91CF911F9148
:1014400008950F931F93CF93DF93CDB7DEB72E97F9
:101450000FB6F894DEBF0FBECDBF8C016BE371E019
:101460008DE392E00E94F0146DE372E0C8010E94E7
:10147000F003882311F060E00EC066E371E08DE3B5
:1014800092E00E94F0146DE372E0C8010E94F00344
:10149000882329F061E0C8010E94DD0992C06CE256
:1014A00071E08DE392E00E94F0146DE372E0C801F8
:1014B0000E94F003882311F062E0EDCF62E271E058
:1014C0008DE392E00E94F0146DE372E0C8010E9487
:1014D000F003882311F063E0DECF6AE171E08DE371
:1014E00092E00E94F0146DE372E0C8010E94F003E4
:1014F000882311F14AE0F8016485CE0108960E9424
:10150000F4116FE171E0CE0101960E94A411BE01B9
:10151000685F7F4FCE0101960E947B12BC0185E27D
:1015200093E00E949510CE0101960E943611CE01E3
:1015300008960E94361145C062E171E08DE392E0A9
:101540000E94F0146DE372E0C8010E94F00388234A
:10155000D1F0F8018585811103C066E271E004C015
:10156000813039F460E371E085E293E00E94A710D6
:1015700028C0823019F469E371E0F6CF833009F5B1
:1015800067E471E0F1CF67E071E08DE392E00E94E3
:10159000F0146DE372E0C8010E94F003882369F043
:1015A000BE016F5F7F4FC8010E94B004882349F0DD
:1015B0006981C8010E94C60904C0C8010E949D0833
:1015C00001C081E02E960FB6F894DEBF0FBECDBFEE
:1015D000DF91CF911F910F910895CF93DF93EC018D
:1015E0000E942D0861E085E00E94F20B61E088E036
:1015F0000E94F20B61E086E00E94F20B6D85CE0145
:101600000E94DD096C85CE01DF91CF910C94C60953
:101610000F931F93CF93DF93CDB7DEB72E970FB6FF
:10162000F894DEBF0FBECDBF80E00E94610C8C013C
:101630004AE0BC01CE0108960E94221265E571E0E5
:10164000CE0101960E94A411BE01685F7F4FCE01BA
:1016500001960E947B12BC0185E293E00E949510E6
:10166000CE0101960E943611CE0108960E943611D5
:10167000C8012E960FB6F894DEBF0FBECDBFDF9126
:10168000CF911F910F9108950F931F93CF93DF93E5
:1016900000D0CDB7DEB78C0180910C03823A81F186
:1016A00028F4803A51F0813A09F165C0833A09F48F
:1016B00040C0843A09F449C05EC08091060390910D
:1016C0000703019789F480910A0390910B03FC01B1
:1016D000EF55FD4F6081019690930B0380930A03B1
:1016E000C8010E94C60944C086E020C0809106035C
:1016F00090910703892BC1F7B801645F7F4F22C027
:101700008091060390910703019771F780910A0376
:1017100090910B03FC01EF55FD4F60810196909372
:101720000B0380930A03C8010E94DD09F801828738
:1017300025C08091060390910703892BA9F6B80173
:10174000635F7F4F41E050E010C0809106039091AD
:101750000703892B49F6C8010E94080B9A838983E5
:1017600042E050E0BE016F5F7F4FC8010E94BB03A3
:10177000F801128603C0C8010E94F9060F900F906D
:10178000DF91CF911F910F9108958EE093E00C941B
:10179000BC09833081F028F4813099F08230A1F0C7
:1017A00008958630A9F08730B9F08430D1F4809163
:1017B00080008F7D03C0809180008F7780938000B0
:1017C000089584B58F7702C084B58F7D84BD089558
:1017D0008091B0008F7703C08091B0008F7D80939F
:1017E000B0000895CF93DF9390E0FC01E053FE4FEB
:1017F0002491FC01EC51FE4F8491882349F190E043
:10180000880F991FFC01EE5FFD4FA591B4918850A0
:101810009E4FFC01C591D4919FB7611108C0F89407
:101820008C91209582238C93888182230AC0623018
:1018300051F4F8948C91322F309583238C938881C6
:10184000822B888304C0F8948C91822B8C939FBF49
:10185000DF91CF9108950F931F93CF93DF931F9242
:10186000CDB7DEB7282F30E0F901E454FE4F849164
:10187000F901E053FE4F1491F901EC51FE4F049130
:101880000023C9F0882321F069830E94C90B698174
:10189000E02FF0E0EE0FFF1FE850FE4FA591B4914E
:1018A0009FB7F8948C91611103C01095812301C0FA
:1018B000812B8C939FBF0F90DF91CF911F910F9140
:1018C00008958E3008F08E5087702091060190E4C4
:1018D000299F90011124822B80937C0080917A00B3
:1018E000806480937A0080917A0086FDFCCF80919D
:1018F00078002091790090E0922B08951F93CF9368
:10190000DF93182FEB0161E00E94F20B209711F496
:1019100060E004C0CF3FD10539F461E0812FDF9151
:10192000CF911F910C942B0CE12FF0E0E454FE4F6B
:10193000E491E330F9F048F4E130B9F0E230A1F598
:1019400084B5806284BDC8BD34C0E630E9F0E730BC
:1019500019F1E43049F58091800080628093800025
:10196000D0938B00C0938A0024C084B5806884BD66
:10197000C7BD1FC080918000806880938000D09395
:101980008900C093880015C08091B0008068809362
:10199000B000C093B3000DC08091B000806280930E
:1019A000B000C093B40005C0C038D1050CF0B5CF6D
:1019B000AFCFDF91CF911F9108951F920F920FB675
:1019C0000F9211242F933F938F939F93AF93BF93C5
:1019D00080911D0390911E03A0911F03B0912003DD
:1019E00030911C0323E0230F2D3720F40196A11D15
:1019F000B11D05C026E8230F0296A11DB11D20933D
:101A00001C0380931D0390931E03A0931F03B093A8
:101A100020038091210390912203A0912303B09190
:101A200024030196A11DB11D8093210390932203ED
:101A3000A0932303B0932403BF91AF919F918F9103
:101A40003F912F910F900FBE0F901F9018952FB7B9
:101A5000F89460911D0370911E0380911F03909173
:101A600020032FBF08953FB7F894809121039091F0
:101A70002203A0912303B091240326B5A89B05C09F
:101A80002F3F19F00196A11DB11D3FBF6627782F8A
:101A9000892F9A2F620F711D811D911D42E0660FE3
:101AA000771F881F991F4A95D1F70895CF92DF922B
:101AB000EF92FF92CF93DF936B017C010E94330D75
:101AC000EB01C114D104E104F10479F00E94330D5B
:101AD0006C1B7D0B683E7340A0F381E0C81AD108EF
:101AE000E108F108C851DC4FECCFDF91CF91FF90B6
:101AF000EF90DF90CF900895789484B5826084BD94
:101B000084B5816084BD85B5826085BD85B5816001
:101B100085BDEEE6F0E0808181608083E1E8F0E061
:101B20001082808182608083808181608083E0E890
:101B3000F0E0808181608083E1EBF0E0808184606F
:101B40008083E0EBF0E0808181608083EAE7F0E071
:101B500080818460808380818260808380818160D5
:101B600080838081806880831092C10008950F93E4
:101B70001F93CF93DF93EC010E94270D688779872D
:101B80008A879B87E881F9810680F781E02DCE0165
:101B9000099597FF15C00E94270D088519852A858C
:101BA0003B85601B710B820B930B0C811D812E8179
:101BB0003F81601771078207930720F38FEF9FEF34
:101BC000DF91CF911F910F910895AF92BF92CF9265
:101BD000DF92EF92FF920F931F93CF93DF936C01ED
:101BE000790121153105A9F08A01C0E0D0E0A62EC7
:101BF000B12CC6010E94B70D97FD0EC08A159B053A
:101C000059F0F80181938F012196CE15DF0589F7F0
:101C100003C080E090E001C0CE01DF91CF911F9121
:101C20000F91FF90EF90DF90CF90BF90AF9008950D
:101C3000FC0124853585F901E05CFF4F80819181AD
:101C4000F901EE5BFF4F20813181821B930B8F7373
:101C500099270895FC0184859585FC01E05CFF4F80
:101C600040815181FC01EE5BFF4F208131814217A1
:101C7000530741F00190F081E02DE80FF91F8081BA
:101C800090E008958FEF9FEF0895FC01848595857E
:101C9000FC01E05CFF4F40815181FC01EE5BFF4F96
:101CA000208131814217530779F0A081B181A80FBB
:101CB000B91F8C91208131812F5F3F4F2F733327C4
:101CC0003183208390E008958FEF9FEF0895FC010A
:101CD00081A1882329F0A489B5898C9186FFFBCF47
:101CE00011A20895CF93DF93FC0126853785D90192
:101CF000A05CBF4F8D919C91119701968F7399278E
:101D0000E901CE5BDF4F4881598184179507D9F3EC
:101D10000D90BC91A02DA20FB31F6C93A685B78523
:101D2000A05CBF4F11969C938E93A689B7892C9186
:101D300081E090E0078C02C0880F991F0A94E2F7B7
:101D4000282B2C9381E081A30488F589E02D8081E4
:101D50008064808381E090E0DF91CF9108950895C1
:101D60001F920F920FB60F9211242F933F934F9310
:101D70008F939F93EF93FF938091C00082FD1CC0CF
:101D80004091C6008091CB039091CC0301968F7354
:101D900099272091CD033091CE038217930771F0DC
:101DA000E091CB03F091CC03E557FC4F4083909337
:101DB000CC038093CB0302C08091C600FF91EF91CA
:101DC0009F918F914F913F912F910F900FBE0F9048
:101DD0001F90189585E293E00E94180E892B11F050
:101DE0000C94AF0E08951F920F920FB60F9211240C
:101DF0002F933F938F939F93EF93FF9320918703AC
:101E0000309188038091890390918A0328173907BC
:101E100031F48091C1008F7D8093C10014C0E091A6
:101E20008903F0918A03E95BFC4F2081809189034B
:101E300090918A0301968F73992790938A038093D8
:101E400089032093C600FF91EF919F918F913F915D
:101E50002F910F900FBE0F901F901895CF92DF9289
:101E6000EF92FF92CF93DF93EC016A017B01411562
:101E700081EE580761057105F9F0EC89FD8981E073
:101E800090E008A002C0880F991F0A94E2F78083AF
:101E900060E079E08DE390E0A70196010E94B9121D
:101EA0002150310941095109569547953795279594
:101EB000211580E1380798F0EC89FD89108260E8EF
:101EC00074E88EE190E0A70196010E94B9122150BA
:101ED0003109410951095695479537952795E88964
:101EE000F9893083EA89FB89208319A2EE89FF8969
:101EF000408181E090E09C010C8C02C0220F331FD6
:101F00000A94E2F7422B4083EE89FF8940819C01CD
:101F10000D8C02C0220F331F0A94E2F7422B40833C
:101F2000EE89FF8940819C010E8C02C0220F331F75
:101F30000A94E2F7422B4083EE89FF8920810F8CBF
:101F400002C0880F991F0A94E2F78095822380834C
:101F5000DF91CF91FF90EF90DF90CF900895109296
:101F600028031092270388EE93E0A0E0B0E080936E
:101F7000290390932A03A0932B03B0932C038EE69E
:101F800091E090932603809325038BE893E0909350
:101F900032038093310387E493E09093340380937A
:101FA000330385EC90E0909336038093350384EC03
:101FB00090E0909338038093370380EC90E0909307
:101FC0003A038093390381EC90E090933C03809333
:101FD0003B0382EC90E090933E0380933D0386ECBC
:101FE00090E09093400380933F0384E0809341030B
:101FF00083E08093420387E08093430385E08093EE
:10200000440381E0809345030895CF92DF92EF92DD
:10201000FF920F931F93CF93DF936C017A01EB0133
:10202000E60EF71E00E010E0CE15DF0561F06991C5
:10203000D601ED91FC910190F081E02DC60109954A
:10204000080F191FF1CFC801DF91CF911F910F9198
:10205000FF90EF90DF90CF9008956115710581F0AA
:10206000DB010D900020E9F7AD0141505109461BFD
:10207000570BDC01ED91FC910280F381E02D099476
:1020800080E090E00895AF92BF92CF92DF92EF92FE
:10209000FF920F931F93CF93DF937C016B01C0E0FE
:1020A000D0E000E010E0D60114968D919C91159738
:1020B000C817D90788F4D701ED91FC91A080B180B1
:1020C000BE01C6010E94A812682FC701F50109953B
:1020D000080F191F2196E7CFC801DF91CF911F91FB
:1020E0000F91FF90EF90DF90CF90BF90AF90089549
:1020F0000C942D10DC01ED91FC910190F081E02D0C
:1021000009940F931F93CF93DF93EC016DE00E942E
:102110007A108C016AE0CE010E947A10800F911F24
:10212000DF91CF911F910F9108950F931F93CF933C
:10213000DF93EC010E9443108C01CE010E948110BC
:10214000800F911FDF91CF911F910F9108950F93F1
:102150001F93CF93DF93EC010E942D108C01CE01D1
:102160000E948110800F911FDF91CF911F910F91DD
:1021700008958F929F92AF92BF92CF92DF92EF928B
:10218000FF920F931F93CF93DF93CDB7DEB7A19745
:102190000FB6F894DEBF0FBECDBF7C01C42EE52F75
:1021A000CB01D22E19A221E02D1510F02AE0D22E5B
:1021B0008E010F5D1F4F8D2C912CA12CB12C6C2DFD
:1021C0007E2FA50194010E94B9128C2DD29E8019F8
:1021D0001124015011098A3010F4805D01C0895C1E
:1021E000F8018083211531054105510521F0C22EEA
:1021F000E32FCA01E4CFB801C7010E942D10A196B8
:102200000FB6F894DEBF0FBECDBFDF91CF911F9107
:102210000F91FF90EF90DF90CF90BF90AF909F9085
:102220008F9008952115310541F4DC01ED91FC9169
:102230000190F081E02D642F09940C94B9100F9354
:102240001F93CF93DF93EC019A01462F50E060E09B
:1022500070E00E9412118C01CE010E948110800F4B
:10226000911FDF91CF911F910F910895FC01808103
:1022700091810C947913CF93DF93EC01888199813C
:10228000009711F00E947913198218821D821C8216
:102290001B821A82DF91CF9108950F931F93CF93E2
:1022A000DF93EC018B016F5F7F4F888199810E94E2
:1022B0000814009731F0998388831B830A8381E097
:1022C00001C080E0DF91CF911F910F910895CF93CE
:1022D000DF93EC0188819981892B29F08A819B8188
:1022E0008617970760F4CE010E944D11882341F0B4
:1022F0008C819D81892B19F4E881F981108281E01C
:10230000DF91CF910895EF92FF920F931F93CF9398
:10231000DF93EC017B018A01BA010E9467118111F0
:1023200004C0CE010E943B1107C01D830C83B7017E
:10233000888199810E941415CE01DF91CF911F9160
:102340000F91FF90EF900895FC011182108213828B
:1023500012821582148216826115710559F0FB01F3
:1023600001900020E9F7AF0141505109461B570B7E
:102370000C9483110895CF93DF93EC01FB01861732
:10238000970761F0608171816115710529F04481C1
:1023900055810E94831102C00E943B11CE01DF9142
:1023A000CF910895FC01118210821382128215824E
:1023B000148216820C94BB11CF93DF93EC0161154C
:1023C000710561F0FB0101900020E9F7AF01415078
:1023D0005109461B570B0E94831102C00E943B11FA
:1023E000CE01DF91CF9108950F931F93CF93DF9389
:1023F000CDB7DEB729970FB6F894DEBF0FBECDBFBD
:102400008C01862FF80111821082138212821582AC
:102410001482168250E0BE016F5F7F4F90E00E94F1
:102420003D15BE016F5F7F4FC8010E94DC112996E8
:102430000FB6F894DEBF0FBECDBFDF91CF911F91D5
:102440000F9108950F931F93CF93DF93CDB7DEB70E
:1024500061970FB6F894DEBF0FBECDBF8C01CB01E4
:10246000F801118210821382128215821482168260
:1024700050E0BE016F5F7F4F0E943D15BE016F5F50
:102480007F4FC8010E94DC1161960FB6F894DEBF41
:102490000FBECDBFDF91CF911F910F910895EF92A5
:1024A000FF920F931F93CF93DF93EC017B010C817D
:1024B0001D816115710511F480E016C041155105AB
:1024C00091F0040F151FB8010E9467118823A1F332
:1024D000288139818C819D81B701820F931F0E94D1
:1024E00014151D830C8381E0DF91CF911F910F9113
:1024F000FF90EF900895CF93DF93EC01FB014481AF
:102500005581608171810E944F12811103C0CE01FB
:102510000E943B11CE01DF91CF910895CF93DF93BD
:10252000EC016115710569F0FB0101900020E9F7EC
:10253000AF0141505109461B570B0E944F128111A8
:1025400003C0CE010E943B11CE01DF91CF910895CF
:10255000FC01248135816217730748F480819181E1
:10256000009729F0FC01E60FF71F8081089580E0B5
:102570000895A1E21A2EAA1BBB1BFD010DC0AA1FC4
:10258000BB1FEE1FFF1FA217B307E407F50720F0DC
:10259000A21BB30BE40BF50B661F771F881F991F57
:1025A0001A9469F760957095809590959B01AC01A0
:1025B000BD01CF010895EE0FFF1F0590F491E02DAE
:1025C0000994CF93DF938230910510F482E090E07C
:1025D000E091D103F091D20320E030E0A0E0B0E040
:1025E000309739F14081518148175907B8F04817A1
:1025F000590771F482819381109729F013969C9367
:102600008E9312972CC09093D2038093D10327C04E
:102610002115310531F04217530718F0A901DB01EC
:1026200001C0EF019A01BD01DF010280F381E02DBD
:10263000D7CF21153105F9F0281B390B243031058E
:1026400080F48A819B816115710521F0FB019383E0
:10265000828304C09093D2038093D103FE0132960B
:1026600044C0FE01E20FF31F819391932250310980
:10267000398328833AC02091CF033091D003232B94
:1026800041F420910201309103013093D003209353
:10269000CF0320910001309101012115310541F452
:1026A0002DB73EB74091040150910501241B350B15
:1026B000E091CF03F091D003E217F307A0F42E1BB3
:1026C0003F0B2817390778F0AC014E5F5F4F241796
:1026D000350748F04E0F5F1F5093D0034093CF0350
:1026E0008193919302C0E0E0F0E0CF01DF91CF91C0
:1026F0000895CF93DF93009709F487C0FC013297C8
:1027000013821282C091D103D091D203209781F419
:1027100020813181280F391F8091CF039091D00300
:102720008217930779F5F093D003E093CF036DC040
:10273000DE0120E030E0AE17BF0750F412964D9155
:102740005C9113979D014115510509F1DA01F3CF11
:10275000B383A28340815181840F951F8A179B0701
:1027600071F48D919C911197840F951F029691831E
:10277000808312968D919C91139793838283211568
:10278000310529F4F093D203E093D1033EC0D9017F
:102790001396FC93EE9312974D915D91A40FB51F84
:1027A000EA17FB0779F480819181840F951F0296C7
:1027B000D90111969C938E938281938113969C9359
:1027C0008E931297E0E0F0E08A819B81009719F0E8
:1027D000FE01EC01F9CFCE01029628813981820FEA
:1027E000931F2091CF033091D0032817390769F444
:1027F000309729F41092D2031092D10302C01382B1
:102800001282D093D003C093CF03DF91CF9108956C
:10281000A0E0B0E0EEE0F4E10C94A315EC01CB01F4
:10282000209719F40E94E112B8C0FE01E60FF71FCD
:102830009E0122503109E217F30708F4ACC0D90118
:102840000D911C91119706171707B8F00530110567
:1028500008F49FC0A801445051094617570708F4CF
:1028600098C002501109061B170B019311936D9329
:102870007C93CF010E9479138CC05B01A01AB10A2E
:102880004E01800E911EA091D103B091D203612C14
:10289000712C60E070E0109709F449C0A815B905E3
:1028A000C9F5ED90FC901197670142E0C40ED11C70
:1028B000CA14DB0478F147018A189B08640142E0DE
:1028C000C40ED11C1296BC9012971396AC91B5E031
:1028D000CB16D10440F0B282A38391828082D901C9
:1028E0008D939C9309C00E5F1F4F0E0D1F1DF901A4
:1028F00011830083EB2DFA2F6115710531F0DB0197
:102900001396FC93EE93129744C0F093D203E09396
:10291000D1033FC06D917C9111976616770608F43C
:102920003B01BD0112960D90BC91A02DB4CF6091DA
:10293000CF037091D00368157905E9F4681679061C
:10294000D0F440910001509101014115510541F42D
:102950004DB75EB76091040170910501461B570B9E
:10296000E417F507C0F4F093D003E093CF03F90127
:10297000918380830EC00E94E1127C01009759F080
:10298000A801BE010E94F714CE010E947913C7016D
:1029900004C0CE0102C080E090E0CDB7DEB7EEE02B
:1029A0000C94BF15FC0188279927E89421912032C7
:1029B000E9F3293010F02E30C8F32B3241F02D32DC
:1029C00039F4689404C00E943515820F911D21913D
:1029D00020532A30C0F31EF4909581959F4F08959F
:1029E000FB01DC0105900D920020E1F70895FB0149
:1029F000DC0102C001900D9241505040D8F708957B
:102A0000FC018191861721F08823D9F79927089531
:102A10003197CF010895FB01DC018D910190801960
:102A20000110D9F3990B0895FB01DC0101900D927F
:102A30000020E1F70895FB0151915523A9F0BF0152
:102A4000DC014D9145174111E1F759F4CD01019099
:102A5000002049F04D9140154111C9F3FB0141118E
:102A6000EFCF81E090E0019708957AE0979F902D55
:102A7000879F802D910D11240895FB019F01423005
:102A800074F0453264F4642F77270E948B15805DC3
:102A90008A330CF0895D8193CB010097A1F71082F6
:102AA000C9010C947B15DC01CB01FC01F999FECF27
:102AB00006C0F2BDE1BDF89A319600B40D924150C6
:102AC0005040B8F70895DC01CB0103C02D910E945E
:102AD0006E1541505040D0F70895262FF999FECF3A
:102AE0001FBA92BD81BD20BD0FB6F894FA9AF99A2B
:102AF0000FBE01960895DC01FC01672F71917723C9
:102B0000E1F7329704C07C916D9370836291AE17A8
:102B1000BF07C8F30895AA1BBB1B51E107C0AA1F3A
:102B2000BB1FA617B70710F0A61BB70B881F991F6E
:102B30005A95A9F780959095BC01CD0108952F92E3
:102B40003F924F925F926F927F928F929F92AF923D
:102B5000BF92CF92DF92EF92FF920F931F93CF938A
:102B6000DF93CDB7DEB7CA1BDB0B0FB6F894DEBF21
:102B70000FBECDBF09942A88398848885F846E8447
:102B80007D848C849B84AA84B984C884DF80EE8091
:102B9000FD800C811B81AA81B981CE0FD11D0FB69A
:102BA000F894DEBF0FBECDBFED010895F894FFCFBE
:102BB0000000D30320000100000000CF01A2014863
:102BC000015001630172012829002E002076007057
:102BD0006F7765723D0073746174653D4F464600C2
:102BE00073746174653D4F4E0073746174653D4646
:102BF0004F52574152440073746174653D524556BB
:102C0000455253450063757272656E743D00000055
:102C10000000ED0ABA09440B210A00000000720E00
:0A2C20000510180E450E2A0E670E6F
:00000001FF
